{
  "contractName": "BlockTasker",
  "abi": [
    {
      "anonymous": false,
      "inputs": [
        {
          "indexed": false,
          "internalType": "uint256",
          "name": "id",
          "type": "uint256"
        },
        {
          "indexed": false,
          "internalType": "bool",
          "name": "completed",
          "type": "bool"
        }
      ],
      "name": "TaskCompleted",
      "type": "event"
    },
    {
      "anonymous": false,
      "inputs": [
        {
          "indexed": false,
          "internalType": "uint256",
          "name": "id",
          "type": "uint256"
        },
        {
          "indexed": false,
          "internalType": "string",
          "name": "content",
          "type": "string"
        },
        {
          "indexed": false,
          "internalType": "bool",
          "name": "completed",
          "type": "bool"
        }
      ],
      "name": "TaskCreated",
      "type": "event"
    },
    {
      "anonymous": false,
      "inputs": [
        {
          "indexed": false,
          "internalType": "uint256",
          "name": "id",
          "type": "uint256"
        }
      ],
      "name": "TaskDeleted",
      "type": "event"
    },
    {
      "inputs": [
        {
          "internalType": "string",
          "name": "_content",
          "type": "string"
        }
      ],
      "name": "createTask",
      "outputs": [],
      "stateMutability": "nonpayable",
      "type": "function"
    },
    {
      "inputs": [
        {
          "internalType": "uint256",
          "name": "_id",
          "type": "uint256"
        }
      ],
      "name": "toggleCompleted",
      "outputs": [],
      "stateMutability": "nonpayable",
      "type": "function"
    },
    {
      "inputs": [
        {
          "internalType": "uint256",
          "name": "_id",
          "type": "uint256"
        }
      ],
      "name": "deleteTask",
      "outputs": [],
      "stateMutability": "nonpayable",
      "type": "function"
    },
    {
      "inputs": [
        {
          "internalType": "uint256",
          "name": "_taskId",
          "type": "uint256"
        }
      ],
      "name": "getTask",
      "outputs": [
        {
          "components": [
            {
              "internalType": "uint256",
              "name": "id",
              "type": "uint256"
            },
            {
              "internalType": "string",
              "name": "content",
              "type": "string"
            },
            {
              "internalType": "bool",
              "name": "completed",
              "type": "bool"
            },
            {
              "internalType": "bool",
              "name": "exists",
              "type": "bool"
            }
          ],
          "internalType": "struct BlockTasker.Task",
          "name": "",
          "type": "tuple"
        }
      ],
      "stateMutability": "view",
      "type": "function",
      "constant": true
    },
    {
      "inputs": [],
      "name": "getTaskCount",
      "outputs": [
        {
          "internalType": "uint256",
          "name": "",
          "type": "uint256"
        }
      ],
      "stateMutability": "view",
      "type": "function",
      "constant": true
    }
  ],
  "bytecode": "0x608060405234801561001057600080fd5b50610ecb806100206000396000f3fe608060405234801561001057600080fd5b50600436106100575760003560e01c8063111002aa1461005c5780631d65e77e14610078578063455f5024146100a8578063560f3192146100c4578063c17a340e146100e0575b600080fd5b61007660048036038101906100719190610a85565b6100fe565b005b610092600480360381019061008d9190610b04565b6102b7565b60405161009f9190610c46565b60405180910390f35b6100c260048036038101906100bd9190610b04565b610491565b005b6100de60048036038101906100d99190610b04565b6106d1565b005b6100e8610815565b6040516100f59190610c77565b60405180910390f35b600160003373ffffffffffffffffffffffffffffffffffffffff1673ffffffffffffffffffffffffffffffffffffffff168152602001908152602001600020600081548092919061014e90610cc1565b91905055506000600160003373ffffffffffffffffffffffffffffffffffffffff1673ffffffffffffffffffffffffffffffffffffffff1681526020019081526020016000205490506040518060800160405280828152602001838152602001600015158152602001600115158152506000803373ffffffffffffffffffffffffffffffffffffffff1673ffffffffffffffffffffffffffffffffffffffff168152602001908152602001600020600083815260200190815260200160002060008201518160000155602082015181600101908051906020019061023392919061085c565b5060408201518160020160006101000a81548160ff02191690831515021790555060608201518160020160016101000a81548160ff0219169083151502179055509050507f05d0fb833127fc08168556d0e7ca9554fc3f6bc843b3b7d2bf1c35aea6bab660818360006040516102ab93929190610d62565b60405180910390a15050565b6102bf6108e2565b6000803373ffffffffffffffffffffffffffffffffffffffff1673ffffffffffffffffffffffffffffffffffffffff168152602001908152602001600020600083815260200190815260200160002060020160019054906101000a900460ff1661035e576040517f08c379a000000000000000000000000000000000000000000000000000000000815260040161035590610dec565b60405180910390fd5b6000803373ffffffffffffffffffffffffffffffffffffffff1673ffffffffffffffffffffffffffffffffffffffff1681526020019081526020016000206000838152602001908152602001600020604051806080016040529081600082015481526020016001820180546103d290610e3b565b80601f01602080910402602001604051908101604052809291908181526020018280546103fe90610e3b565b801561044b5780601f106104205761010080835404028352916020019161044b565b820191906000526020600020905b81548152906001019060200180831161042e57829003601f168201915b505050505081526020016002820160009054906101000a900460ff161515151581526020016002820160019054906101000a900460ff1615151515815250509050919050565b60008060003373ffffffffffffffffffffffffffffffffffffffff1673ffffffffffffffffffffffffffffffffffffffff16815260200190815260200160002060008381526020019081526020016000206040518060800160405290816000820154815260200160018201805461050790610e3b565b80601f016020809104026020016040519081016040528092919081815260200182805461053390610e3b565b80156105805780601f1061055557610100808354040283529160200191610580565b820191906000526020600020905b81548152906001019060200180831161056357829003601f168201915b505050505081526020016002820160009054906101000a900460ff161515151581526020016002820160019054906101000a900460ff1615151515815250509050806040015115816040019015159081151581525050806000803373ffffffffffffffffffffffffffffffffffffffff1673ffffffffffffffffffffffffffffffffffffffff168152602001908152602001600020600084815260200190815260200160002060008201518160000155602082015181600101908051906020019061064c92919061085c565b5060408201518160020160006101000a81548160ff02191690831515021790555060608201518160020160016101000a81548160ff0219169083151502179055509050507fe21fa966ca5cd02748c0752352d18c48165e61cb55b4c29cccf924b5a95fcff18282604001516040516106c5929190610e6c565b60405180910390a15050565b6000803373ffffffffffffffffffffffffffffffffffffffff1673ffffffffffffffffffffffffffffffffffffffff168152602001908152602001600020600082815260200190815260200160002060020160019054906101000a900460ff16610770576040517f08c379a000000000000000000000000000000000000000000000000000000000815260040161076790610dec565b60405180910390fd5b60008060003373ffffffffffffffffffffffffffffffffffffffff1673ffffffffffffffffffffffffffffffffffffffff168152602001908152602001600020600083815260200190815260200160002060020160016101000a81548160ff0219169083151502179055507fd078b251d950cc55c44340be1db732337ef4939a76e1367ee271ad2cb19c46af8160405161080a9190610c77565b60405180910390a150565b6000600160003373ffffffffffffffffffffffffffffffffffffffff1673ffffffffffffffffffffffffffffffffffffffff16815260200190815260200160002054905090565b82805461086890610e3b565b90600052602060002090601f01602090048101928261088a57600085556108d1565b82601f106108a357805160ff19168380011785556108d1565b828001600101855582156108d1579182015b828111156108d05782518255916020019190600101906108b5565b5b5090506108de919061090e565b5090565b604051806080016040528060008152602001606081526020016000151581526020016000151581525090565b5b8082111561092757600081600090555060010161090f565b5090565b6000604051905090565b600080fd5b600080fd5b600080fd5b600080fd5b6000601f19601f8301169050919050565b7f4e487b7100000000000000000000000000000000000000000000000000000000600052604160045260246000fd5b61099282610949565b810181811067ffffffffffffffff821117156109b1576109b061095a565b5b80604052505050565b60006109c461092b565b90506109d08282610989565b919050565b600067ffffffffffffffff8211156109f0576109ef61095a565b5b6109f982610949565b9050602081019050919050565b82818337600083830152505050565b6000610a28610a23846109d5565b6109ba565b905082815260208101848484011115610a4457610a43610944565b5b610a4f848285610a06565b509392505050565b600082601f830112610a6c57610a6b61093f565b5b8135610a7c848260208601610a15565b91505092915050565b600060208284031215610a9b57610a9a610935565b5b600082013567ffffffffffffffff811115610ab957610ab861093a565b5b610ac584828501610a57565b91505092915050565b6000819050919050565b610ae181610ace565b8114610aec57600080fd5b50565b600081359050610afe81610ad8565b92915050565b600060208284031215610b1a57610b19610935565b5b6000610b2884828501610aef565b91505092915050565b610b3a81610ace565b82525050565b600081519050919050565b600082825260208201905092915050565b60005b83811015610b7a578082015181840152602081019050610b5f565b83811115610b89576000848401525b50505050565b6000610b9a82610b40565b610ba48185610b4b565b9350610bb4818560208601610b5c565b610bbd81610949565b840191505092915050565b60008115159050919050565b610bdd81610bc8565b82525050565b6000608083016000830151610bfb6000860182610b31565b5060208301518482036020860152610c138282610b8f565b9150506040830151610c286040860182610bd4565b506060830151610c3b6060860182610bd4565b508091505092915050565b60006020820190508181036000830152610c608184610be3565b905092915050565b610c7181610ace565b82525050565b6000602082019050610c8c6000830184610c68565b92915050565b7f4e487b7100000000000000000000000000000000000000000000000000000000600052601160045260246000fd5b6000610ccc82610ace565b91507fffffffffffffffffffffffffffffffffffffffffffffffffffffffffffffffff8203610cfe57610cfd610c92565b5b600182019050919050565b600082825260208201905092915050565b6000610d2582610b40565b610d2f8185610d09565b9350610d3f818560208601610b5c565b610d4881610949565b840191505092915050565b610d5c81610bc8565b82525050565b6000606082019050610d776000830186610c68565b8181036020830152610d898185610d1a565b9050610d986040830184610d53565b949350505050565b7f5461736b20646f6573206e6f7420657869737400000000000000000000000000600082015250565b6000610dd6601383610d09565b9150610de182610da0565b602082019050919050565b60006020820190508181036000830152610e0581610dc9565b9050919050565b7f4e487b7100000000000000000000000000000000000000000000000000000000600052602260045260246000fd5b60006002820490506001821680610e5357607f821691505b602082108103610e6657610e65610e0c565b5b50919050565b6000604082019050610e816000830185610c68565b610e8e6020830184610d53565b939250505056fea264697066735822122032b9ed64ea874711735f870af119351a12a1d0d940ef7ebb765f2058bde698bb64736f6c634300080d0033",
  "immutableReferences": {},
  "source": "// SPDX-License-Identifier: MIT\npragma solidity ^0.8.0;\n\ncontract BlockTasker {\n    struct Task {\n        uint id;\n        string content;\n        bool completed;\n        bool exists;\n    }\n\n    mapping(address => mapping(uint => Task)) private tasks;\n    mapping(address => uint) private taskCount;\n\n    event TaskCreated(\n        uint id,\n        string content,\n        bool completed\n    );\n\n    event TaskCompleted(\n        uint id,\n        bool completed\n    );\n    \n    event TaskDeleted(\n        uint id\n    );\n\n    function createTask(string memory _content) public {\n        taskCount[msg.sender]++;\n        uint taskId = taskCount[msg.sender];\n        tasks[msg.sender][taskId] = Task(taskId, _content, false, true);\n        emit TaskCreated(taskId, _content, false);\n    }\n\n    function toggleCompleted(uint _id) public {\n        Task memory _task = tasks[msg.sender][_id];\n        _task.completed = !_task.completed;\n        tasks[msg.sender][_id] = _task;\n        emit TaskCompleted(_id, _task.completed);\n    }\n\n    function deleteTask(uint _id) public {\n        require(tasks[msg.sender][_id].exists, \"Task does not exist\");\n        tasks[msg.sender][_id].exists = false;\n        emit TaskDeleted(_id);\n    }\n\n    function getTask(uint _taskId) public view returns (Task memory) {\n        require(tasks[msg.sender][_taskId].exists, \"Task does not exist\");\n        return tasks[msg.sender][_taskId];\n    }\n\n    function getTaskCount() public view returns (uint) {\n        return taskCount[msg.sender];\n    }\n}\n",
  "sourcePath": "/Users/erdinc/Documents/block-tasker/backend/contracts/BlockTasker.sol",
  "compiler": {
    "name": "solc",
    "version": "0.8.13+commit.abaa5c0e.Emscripten.clang"
  },
  "schemaVersion": "3.4.16",
  "updatedAt": "2024-06-30T22:47:49.115Z",
  "networkType": "ethereum",
  "devdoc": {
    "kind": "dev",
    "methods": {},
    "version": 1
  },
  "userdoc": {
    "kind": "user",
    "methods": {},
    "version": 1
  }
}